{
    "_format": "hh-sol-artifact-1",
    "contractName": "EvalAddressContract",
    "sourceName": "contracts/EvalAddressContract.sol",
    "abi": [
        {
            "inputs": [
                {
                    "internalType": "address",
                    "name": "_sender",
                    "type": "address"
                }
            ],
            "name": "countEvalAddress",
            "outputs": [
                {
                    "internalType": "uint256",
                    "name": "",
                    "type": "uint256"
                }
            ],
            "stateMutability": "view",
            "type": "function"
        },
        {
            "inputs": [
                {
                    "internalType": "address",
                    "name": "_sender",
                    "type": "address"
                },
                {
                    "internalType": "string[]",
                    "name": "_names",
                    "type": "string[]"
                }
            ],
            "name": "createEvalAddress",
            "outputs": [],
            "stateMutability": "nonpayable",
            "type": "function"
        },
        {
            "inputs": [
                {
                    "internalType": "address",
                    "name": "_from",
                    "type": "address"
                },
                {
                    "internalType": "address",
                    "name": "_to",
                    "type": "address"
                },
                {
                    "internalType": "uint256",
                    "name": "_evalAddressId",
                    "type": "uint256"
                },
                {
                    "internalType": "uint256",
                    "name": "_amount",
                    "type": "uint256"
                },
                {
                    "internalType": "string",
                    "name": "_message",
                    "type": "string"
                }
            ],
            "name": "evaluation",
            "outputs": [],
            "stateMutability": "payable",
            "type": "function"
        },
        {
            "inputs": [
                {
                    "internalType": "address",
                    "name": "_sender",
                    "type": "address"
                }
            ],
            "name": "getReceivedTokens",
            "outputs": [
                {
                    "components": [
                        {
                            "internalType": "uint256",
                            "name": "evalAddressId",
                            "type": "uint256"
                        },
                        {
                            "internalType": "uint256",
                            "name": "amount",
                            "type": "uint256"
                        },
                        {
                            "internalType": "string",
                            "name": "message",
                            "type": "string"
                        },
                        {
                            "internalType": "uint256",
                            "name": "sended_at",
                            "type": "uint256"
                        }
                    ],
                    "internalType": "struct EvalAddressContract.GeneralToken[]",
                    "name": "",
                    "type": "tuple[]"
                }
            ],
            "stateMutability": "view",
            "type": "function"
        },
        {
            "inputs": [
                {
                    "internalType": "address",
                    "name": "_sender",
                    "type": "address"
                }
            ],
            "name": "getSendedTokens",
            "outputs": [
                {
                    "components": [
                        {
                            "internalType": "uint256",
                            "name": "evalAddressId",
                            "type": "uint256"
                        },
                        {
                            "internalType": "uint256",
                            "name": "amount",
                            "type": "uint256"
                        },
                        {
                            "internalType": "string",
                            "name": "message",
                            "type": "string"
                        },
                        {
                            "internalType": "uint256",
                            "name": "sended_at",
                            "type": "uint256"
                        }
                    ],
                    "internalType": "struct EvalAddressContract.GeneralToken[]",
                    "name": "",
                    "type": "tuple[]"
                }
            ],
            "stateMutability": "view",
            "type": "function"
        },
        {
            "inputs": [
                {
                    "internalType": "address",
                    "name": "_sender",
                    "type": "address"
                }
            ],
            "name": "myEvalAddresses",
            "outputs": [
                {
                    "components": [
                        {
                            "internalType": "string",
                            "name": "name",
                            "type": "string"
                        },
                        {
                            "internalType": "uint256",
                            "name": "id",
                            "type": "uint256"
                        },
                        {
                            "internalType": "uint256",
                            "name": "total",
                            "type": "uint256"
                        }
                    ],
                    "internalType": "struct EvalAddressContract.EvalAddress[]",
                    "name": "",
                    "type": "tuple[]"
                }
            ],
            "stateMutability": "view",
            "type": "function"
        }
    ],
    "bytecode": "0x608060405234801561001057600080fd5b50611874806100206000396000f3fe6080604052600436106100555760003560e01c806309ac49121461005a5780630e9bd7a6146100835780631b0a32a51461009f578063736cfb31146100dc578063a7aa1e1a14610119578063c0177b7e14610156575b600080fd5b34801561006657600080fd5b50610081600480360381019061007c91906110c5565b610193565b005b61009d60048036038101906100989190611157565b61031f565b005b3480156100ab57600080fd5b506100c660048036038101906100c191906111ee565b6104eb565b6040516100d391906113d7565b60405180910390f35b3480156100e857600080fd5b5061010360048036038101906100fe91906111ee565b610639565b604051610110919061150b565b60405180910390f35b34801561012557600080fd5b50610140600480360381019061013b91906111ee565b6108a5565b60405161014d919061153c565b60405180910390f35b34801561016257600080fd5b5061017d600480360381019061017891906111ee565b6108f0565b60405161018a91906113d7565b60405180910390f35b6101d36040518060400160405280601181526020017f6e616d657320636f756e742069732025730000000000000000000000000000008152508251610a3e565b8051600a1015610218576040517f08c379a000000000000000000000000000000000000000000000000000000000815260040161020f906115b4565b60405180910390fd5b60005b815181101561031a5761022e6003610ada565b6000808473ffffffffffffffffffffffffffffffffffffffff1673ffffffffffffffffffffffffffffffffffffffff168152602001908152602001600020604051806060016040528084848151811061028a576102896115d4565b5b602002602001015181526020016102a16003610af0565b81526020016000815250908060018154018082558091505060019003906000526020600020906003020160009091909190915060008201518160000190805190602001906102f0929190610d84565b5060208201518160010155604082015181600201555050808061031290611632565b91505061021b565b505050565b8160051015610363576040517f08c379a000000000000000000000000000000000000000000000000000000000815260040161035a906116c7565b60405180910390fd5b60006040518060800160405280858152602001848152602001838152602001428152509050600160008773ffffffffffffffffffffffffffffffffffffffff1673ffffffffffffffffffffffffffffffffffffffff16815260200190815260200160002081908060018154018082558091505060019003906000526020600020906004020160009091909190915060008201518160000155602082015181600101556040820151816002019080519060200190610421929190610d84565b50606082015181600301555050600260008673ffffffffffffffffffffffffffffffffffffffff1673ffffffffffffffffffffffffffffffffffffffff168152602001908152602001600020819080600181540180825580915050600190039060005260206000209060040201600090919091909150600082015181600001556020820151816001015560408201518160020190805190602001906104c7929190610d84565b506060820151816003015550506104e385858360200151610afe565b505050505050565b6060600260008373ffffffffffffffffffffffffffffffffffffffff1673ffffffffffffffffffffffffffffffffffffffff168152602001908152602001600020805480602002602001604051908101604052809291908181526020016000905b8282101561062e5783829060005260206000209060040201604051806080016040529081600082015481526020016001820154815260200160028201805461059390611716565b80601f01602080910402602001604051908101604052809291908181526020018280546105bf90611716565b801561060c5780601f106105e15761010080835404028352916020019161060c565b820191906000526020600020905b8154815290600101906020018083116105ef57829003601f168201915b505050505081526020016003820154815250508152602001906001019061054c565b505050509050919050565b60606107646040518060400160405280601d81526020017f53656e646572206576616c41646472657373206e616d652069732025730000008152506000808573ffffffffffffffffffffffffffffffffffffffff1673ffffffffffffffffffffffffffffffffffffffff1681526020019081526020016000206000815481106106c5576106c46115d4565b5b906000526020600020906003020160000180546106e190611716565b80601f016020809104026020016040519081016040528092919081815260200182805461070d90611716565b801561075a5780601f1061072f5761010080835404028352916020019161075a565b820191906000526020600020905b81548152906001019060200180831161073d57829003601f168201915b5050505050610cbf565b6000808373ffffffffffffffffffffffffffffffffffffffff1673ffffffffffffffffffffffffffffffffffffffff168152602001908152602001600020805480602002602001604051908101604052809291908181526020016000905b8282101561089a57838290600052602060002090600302016040518060600160405290816000820180546107f590611716565b80601f016020809104026020016040519081016040528092919081815260200182805461082190611716565b801561086e5780601f106108435761010080835404028352916020019161086e565b820191906000526020600020905b81548152906001019060200180831161085157829003601f168201915b5050505050815260200160018201548152602001600282015481525050815260200190600101906107c2565b505050509050919050565b60008060008373ffffffffffffffffffffffffffffffffffffffff1673ffffffffffffffffffffffffffffffffffffffff168152602001908152602001600020805490509050919050565b6060600160008373ffffffffffffffffffffffffffffffffffffffff1673ffffffffffffffffffffffffffffffffffffffff168152602001908152602001600020805480602002602001604051908101604052809291908181526020016000905b82821015610a335783829060005260206000209060040201604051806080016040529081600082015481526020016001820154815260200160028201805461099890611716565b80601f01602080910402602001604051908101604052809291908181526020018280546109c490611716565b8015610a115780601f106109e657610100808354040283529160200191610a11565b820191906000526020600020905b8154815290600101906020018083116109f457829003601f168201915b5050505050815260200160038201548152505081526020019060010190610951565b505050509050919050565b610ad68282604051602401610a54929190611781565b6040516020818303038152906040527fb60e72cc000000000000000000000000000000000000000000000000000000007bffffffffffffffffffffffffffffffffffffffffffffffffffffffff19166020820180517bffffffffffffffffffffffffffffffffffffffffffffffffffffffff8381831617835250505050610d5b565b5050565b6001816000016000828254019250508190555050565b600081600001549050919050565b610b726040518060400160405280600a81526020017f74657374206973202573000000000000000000000000000000000000000000008152506040518060400160405280600281526020017f6f6b000000000000000000000000000000000000000000000000000000000000815250610cbf565b60008060008573ffffffffffffffffffffffffffffffffffffffff1673ffffffffffffffffffffffffffffffffffffffff16815260200190815260200160002080549050905060005b81811015610cb857836000808773ffffffffffffffffffffffffffffffffffffffff1673ffffffffffffffffffffffffffffffffffffffff1681526020019081526020016000208281548110610c1457610c136115d4565b5b9060005260206000209060030201600101541415610ca557826000808773ffffffffffffffffffffffffffffffffffffffff1673ffffffffffffffffffffffffffffffffffffffff1681526020019081526020016000208281548110610c7d57610c7c6115d4565b5b90600052602060002090600302016002016000828254610c9d91906117b1565b925050819055505b8080610cb090611632565b915050610bbb565b5050505050565b610d578282604051602401610cd5929190611807565b6040516020818303038152906040527f4b5c4277000000000000000000000000000000000000000000000000000000007bffffffffffffffffffffffffffffffffffffffffffffffffffffffff19166020820180517bffffffffffffffffffffffffffffffffffffffffffffffffffffffff8381831617835250505050610d5b565b5050565b60008151905060006a636f6e736f6c652e6c6f679050602083016000808483855afa5050505050565b828054610d9090611716565b90600052602060002090601f016020900481019282610db25760008555610df9565b82601f10610dcb57805160ff1916838001178555610df9565b82800160010185558215610df9579182015b82811115610df8578251825591602001919060010190610ddd565b5b509050610e069190610e0a565b5090565b5b80821115610e23576000816000905550600101610e0b565b5090565b6000604051905090565b600080fd5b600080fd5b600073ffffffffffffffffffffffffffffffffffffffff82169050919050565b6000610e6682610e3b565b9050919050565b610e7681610e5b565b8114610e8157600080fd5b50565b600081359050610e9381610e6d565b92915050565b600080fd5b6000601f19601f8301169050919050565b7f4e487b7100000000000000000000000000000000000000000000000000000000600052604160045260246000fd5b610ee782610e9e565b810181811067ffffffffffffffff82111715610f0657610f05610eaf565b5b80604052505050565b6000610f19610e27565b9050610f258282610ede565b919050565b600067ffffffffffffffff821115610f4557610f44610eaf565b5b602082029050602081019050919050565b600080fd5b600080fd5b600067ffffffffffffffff821115610f7b57610f7a610eaf565b5b610f8482610e9e565b9050602081019050919050565b82818337600083830152505050565b6000610fb3610fae84610f60565b610f0f565b905082815260208101848484011115610fcf57610fce610f5b565b5b610fda848285610f91565b509392505050565b600082601f830112610ff757610ff6610e99565b5b8135611007848260208601610fa0565b91505092915050565b600061102361101e84610f2a565b610f0f565b9050808382526020820190506020840283018581111561104657611045610f56565b5b835b8181101561108d57803567ffffffffffffffff81111561106b5761106a610e99565b5b8086016110788982610fe2565b85526020850194505050602081019050611048565b5050509392505050565b600082601f8301126110ac576110ab610e99565b5b81356110bc848260208601611010565b91505092915050565b600080604083850312156110dc576110db610e31565b5b60006110ea85828601610e84565b925050602083013567ffffffffffffffff81111561110b5761110a610e36565b5b61111785828601611097565b9150509250929050565b6000819050919050565b61113481611121565b811461113f57600080fd5b50565b6000813590506111518161112b565b92915050565b600080600080600060a0868803121561117357611172610e31565b5b600061118188828901610e84565b955050602061119288828901610e84565b94505060406111a388828901611142565b93505060606111b488828901611142565b925050608086013567ffffffffffffffff8111156111d5576111d4610e36565b5b6111e188828901610fe2565b9150509295509295909350565b60006020828403121561120457611203610e31565b5b600061121284828501610e84565b91505092915050565b600081519050919050565b600082825260208201905092915050565b6000819050602082019050919050565b61125081611121565b82525050565b600081519050919050565b600082825260208201905092915050565b60005b83811015611290578082015181840152602081019050611275565b8381111561129f576000848401525b50505050565b60006112b082611256565b6112ba8185611261565b93506112ca818560208601611272565b6112d381610e9e565b840191505092915050565b60006080830160008301516112f66000860182611247565b5060208301516113096020860182611247565b506040830151848203604086015261132182826112a5565b91505060608301516113366060860182611247565b508091505092915050565b600061134d83836112de565b905092915050565b6000602082019050919050565b600061136d8261121b565b6113778185611226565b93508360208202850161138985611237565b8060005b858110156113c557848403895281516113a68582611341565b94506113b183611355565b925060208a0199505060018101905061138d565b50829750879550505050505092915050565b600060208201905081810360008301526113f18184611362565b905092915050565b600081519050919050565b600082825260208201905092915050565b6000819050602082019050919050565b6000606083016000830151848203600086015261144282826112a5565b91505060208301516114576020860182611247565b50604083015161146a6040860182611247565b508091505092915050565b60006114818383611425565b905092915050565b6000602082019050919050565b60006114a1826113f9565b6114ab8185611404565b9350836020820285016114bd85611415565b8060005b858110156114f957848403895281516114da8582611475565b94506114e583611489565b925060208a019950506001810190506114c1565b50829750879550505050505092915050565b600060208201905081810360008301526115258184611496565b905092915050565b61153681611121565b82525050565b6000602082019050611551600083018461152d565b92915050565b600082825260208201905092915050565b7f72656163686564206576616c2061646472657373206c696d6974000000000000600082015250565b600061159e601a83611557565b91506115a982611568565b602082019050919050565b600060208201905081810360008301526115cd81611591565b9050919050565b7f4e487b7100000000000000000000000000000000000000000000000000000000600052603260045260246000fd5b7f4e487b7100000000000000000000000000000000000000000000000000000000600052601160045260246000fd5b600061163d82611121565b91507fffffffffffffffffffffffffffffffffffffffffffffffffffffffffffffffff8214156116705761166f611603565b5b600182019050919050565b7f546f6f206d616e7920546f6b656e000000000000000000000000000000000000600082015250565b60006116b1600e83611557565b91506116bc8261167b565b602082019050919050565b600060208201905081810360008301526116e0816116a4565b9050919050565b7f4e487b7100000000000000000000000000000000000000000000000000000000600052602260045260246000fd5b6000600282049050600182168061172e57607f821691505b60208210811415611742576117416116e7565b5b50919050565b600061175382611256565b61175d8185611557565b935061176d818560208601611272565b61177681610e9e565b840191505092915050565b6000604082019050818103600083015261179b8185611748565b90506117aa602083018461152d565b9392505050565b60006117bc82611121565b91506117c783611121565b9250827fffffffffffffffffffffffffffffffffffffffffffffffffffffffffffffffff038211156117fc576117fb611603565b5b828201905092915050565b600060408201905081810360008301526118218185611748565b905081810360208301526118358184611748565b9050939250505056fea264697066735822122074c6f9b9dad09c7943b4097e7c05826c40aad52e220cb373b48e0eb58c0cf6c564736f6c63430008090033",
    "linkReferences": {},
    "deployedLinkReferences": {}
}